:020000040800F2
:10000000580700204D0200086B170008D51600089D
:1000100069170008F905000805180008000000002D
:100020000000000000000000000000006F17000842
:10003000AD060008000000006D17000871170008E9
:1000400067020008670200086702000867020008EC
:1000500067020008670200086702000867020008DC
:1000600067020008670200086702000867020008CC
:1000700067020008670200086702000867020008BC
:1000800067020008670200086702000867020008AC
:10009000670200086702000867020008670200089C
:1000A000670200086702000867020008670200088C
:1000B000670200086702000867020008670200087C
:1000C000670200086702000867020008670200086C
:1000D000670200086702000867020008670200085C
:1000E000670200086702000867020008670200084C
:1000F000670200086702000867020008670200083C
:10010000670200086702000867020008670200082B
:10011000670200086702000867020008670200081B
:10012000FD05000867020008670200086702000872
:1001300067020008670200086702000867020008FB
:1001400067020008670200086702000867020008EB
:1001500067020008670200086702000867020008DB
:1001600067020008670200086702000867020008CB
:10017000670200086702000867020008000000002C
:1001800067020008670200086702000867020008AB
:10019000670200086702000867020008670200089B
:1001A00067020008670200086702000800F002F812
:1001B00000F03CF80AA090E8000C82448344AAF1C5
:1001C0000107DA4501D100F031F8AFF2090EBAE8C3
:1001D0000F0013F0010F18BFFB1A43F0010318477B
:1001E000281A0000481A0000103A24BF78C878C1C5
:1001F000FAD8520724BF30C830C144BF04680C602D
:10020000704700000023002400250026103A28BF74
:1002100078C1FBD8520728BF30C148BF0B60704778
:100220001FB501F0DBFC1FBD10B510BD00F0CFF80D
:100230001146FFF7F5FF01F0F7FA00F0EDF803B40F
:10024000FFF7F2FF03BC00F0F5F800000948804713
:1002500009480047FEE7FEE7FEE7FEE7FEE7FEE7A8
:10026000FEE7FEE7FEE7FEE704480549054A064BC0
:1002700070470000F5170008AD0100085801002084
:1002800058070020580300205803002053EA020CAE
:1002900000F069802DE9F04B4FF00006002B1FBFE6
:1002A000B3FA83F503FA05F424FA05F65E4012BFAB
:1002B0001643B2FA82F502FA05F4C5F120051EBF15
:1002C00022FA05FC44EA0C04203556EA044C4FEAB5
:1002D000144418BF641C4FF000084FF0000990420E
:1002E00071EB030C39D3002919BFB1FA81F701FA78
:1002F00007F6B0FA80F700FA07F6C7F120071EBF2D
:1003000020FA07FC46EA0C062037B6FBF4FCA7EB04
:100310000507103F07F01F0BCBF120060CFA0BFB73
:100320002CFA06F644BFB3460026202FA4BF5E4633
:100330004FF0000B5BEA060C08BF4FF0010B19EB06
:100340000B09ABFB027C48EB0608C01B06FB02CC8A
:100350000BFB03CC71EB0C01C1E70B460246414697
:100360004846BDE8F08B13B54FF000004FF0000198
:10037000AFF30080BDE81C4070474FF0000200B5AD
:10038000134694469646203922BFA0E80C50A0E8B8
:100390000C50B1F12001BFF4F7AF090728BFA0E866
:1003A0000C5048BF0CC05DF804EB890028BF40F832
:1003B000042B08BF704748BF20F8022B11F0804F74
:1003C00018BF00F8012B704770477047704775469B
:1003D00000F02CF8AE4605006946534620F00700B1
:1003E000854618B020B5FFF73FFFBDE820404FF02D
:1003F00000064FF000074FF000084FF0000B21F00F
:100400000701AC46ACE8C009ACE8C009ACE8C009DB
:10041000ACE8C0098D46704710B50446AFF30080C4
:100420002046BDE81040FFF70ABF000000487047B3
:10043000F800002001491820ABBEFEE726000200AC
:10044000704710B50146806B026C12F0500F05D05A
:10045000026CD20626D500F0E1F910BD016C41F422
:100460000071016401688A6812F0405F17D1027E52
:10047000AAB9CA6A12F4700F02D08A6852050ED463
:100480004A6822F020024A60016C21F48071016404
:10049000016CC90403D4016C41F00101016400F056
:1004A000BBF910BD806BC26CBDE810400846104718
:1004B00010B5806B40210164416C41F0040141643E
:1004C00000F0ACF910BD10B5806B00F0A6F910BDBE
:1004D000464910B54A6822F440324A604A68436887
:1004E0001A434A6001684A6822F480724A600168CF
:1004F0004A68036942EA03224A6001684A6822F0B6
:1005000040724A6001684A6883681A434A60016819
:100510008A6822F400628A6001688A68C3681A43A4
:100520008A60816A6FF07062D14201688A6822F045
:1005300070628A6001688A680CD0836A1A438A6094
:1005400001688A6822F040528A6001688A68C36A3A
:100550001A4301E022F040528A6001688A6822F062
:1005600002028A6001688A68037E42EA43028A6066
:1005700090F82010002901684A680FD042F4006208
:100580004A6001684A6822F460424A6001684A6829
:10059000174C436A04EB43331A4301E022F4006230
:1005A0004A600168CA6A22F47002CA620168CA6AB3
:1005B000838B104C04EB03531A43CA6201688A68A8
:1005C00022F400728A6001688A6890F8303042EA4A
:1005D00043228A6001688A6822F480628A60016826
:1005E0008A68406942EA8020886010BD002301408B
:1005F00000E0FFFF0000F0FFFEE70000014800F010
:1006000095BA00009800002001681823CAB2103A79
:10061000B2FBF3F2054B6FF30901032A9B5CC36540
:1006200000D9091D8165084670470000F01B0008CD
:1006300010B5014600208B698A6A4FF0C07453B12F
:10064000B3F5005F15D072B1012A0CD0022A0AD08E
:10065000032A09D104E01AB1012A06D0022A03D1E3
:10066000C96AC90100D5012010BDC96AA142FAD0EA
:1006700010BD002AF7D0012AF2D0022AF3D0032AB3
:10068000F3D010BD30B50468256825F480252560B9
:10069000046863608368402B036803D09960006836
:1006A000C26030BD9A600068C16030BD704772B6EC
:1006B000FEE7000078B50024009490F83C20012A61
:1006C00019D0012280F83C200A6807230568092A0E
:1006D00013D9EE680A3A02EB420293409E43EE6061
:1006E0000B788A680A3B03EB43039A400368DD6892
:1006F0002A43DA6010E0022078BD2E6902EB420244
:1007000093409E432E610B788A6803EB43039A4023
:1007100003681D692A431A614A681F23072A13D2F6
:1007200005686E6B521E02EB820293409E436E631D
:100730000A8893B20A79521E02EB82029340026841
:10074000556B2B43536327E005680D2A12D22E6B9D
:10075000D21F02EB820293409E432E630B790A88DC
:10076000DB1F92B203EB83039A4003681D6B2A439D
:100770001A6311E0EE6A0D3A02EB820293409E4347
:10078000EE620B790A880D3B92B203EB83039A4029
:100790000368DD6A2A43DA621B4B0568194A9D42E9
:1007A0000AD10D68122D07D1556825F40005556052
:1007B000556845F48005556005689D421DD1134D6F
:1007C0000B68AB4201D0112B17D1536823F480037F
:1007D0005360536843F4000353600968A9420CD185
:1007E0000B490C4A0968B1FBF2F101EB81014900A8
:1007F00000E0491E00910029FBD180F83C40002018
:1008000078BD0000002301400020014012000010CC
:100810002C00002040420F0070477047704770B5B1
:1008200004004FF0000503D0206C002610B107E053
:10083000012070BD204600F01DF8666484F83C601D
:10084000206CC00610D4206C20F4885040F00200C8
:1008500020642046FFF73CFE6664206C20F0020016
:1008600040F00100206400E0012584F83C60284647
:1008700070BD000070B586B0064614216846FFF7CB
:100880007CFD1C493068884232D11B480025016834
:1008900041F480710160006800F480700590164892
:1008A0001438016841F0010101600068694600F0F8
:1008B00001000590072000900320CDE901050F48B5
:1008C00000F0B8FA0F4C0E48C4E900050015A56009
:1008D000C4E9035080106561C4E9065025622046D2
:1008E000656200F0F3F908B1FFF7E1FEB463A663B7
:1008F00006B070BD002001404438024000000240B4
:100900001064024098000020F8B5044600200E460E
:10091000009094F83C10012907D0012184F83C1084
:1009200021688B68DB0702D011E00220F8BD8B68DC
:1009300043F001038B604049404B0968B1FBF3F180
:1009400001EB410100E0491E00910029FBD1216823
:100950008B68DB0503D58B6823F480738B6021687B
:100960008B68DB075DD0236C40F20165AB4343F439
:10097000807323644968490505D5216C21F4005131
:1009800041F480512164216CC90404D5616C21F0CB
:100990000601616400E0606484F83C00A16B2948B2
:1009A000274DC863A16B28480864A16B2748C86419
:1009B00021686FF0220008602068416841F0806182
:1009C00041602068816841F480718160216813462C
:1009D00032464C31A06B00F0E3F968681C49C00650
:1009E000206806D0884224D1816811F0405F13D07E
:1009F0001FE08842F8D0174A904203D1D1F804236F
:100A0000D206F1D0144A904213D1D1F8041301F068
:100A10001F011029E8D30CE0816841F0804181601A
:100A200007E0206C40F010002064606C40F0010092
:100A300060640020F8BD00002C00002040420F0040
:100A40000023014043040008C7040008B104000863
:100A500000200140002101400022014070B543798F
:100A6000012B1CD0012646710223037105682B68F7
:100A700002F0100440F6FE72A2409343D1E9002137
:100A80000A43A2401A432A6001680A68C023A340AF
:100A90009A430A60067100214171084670BD022028
:100AA00070BD70B5040003D02079002510B105E0B9
:100AB000012070BD6571204600F008F80220207109
:100AC000256101202071002070BD000010B586B0A6
:100AD000044614216846FFF750FC114920688842FB
:100AE0001CD110480021026842F0005202600068E8
:100AF00000F0005005900B481038026842F00102E7
:100B00000260006800F001000590102000900320B2
:100B1000CDE901016946044800F08CF906B010BD2A
:100B20000074004040380240000002402DE9F843C4
:100B300004464FF00009CDF8009063484FF4165179
:100B4000A56D0068B0FBF1F72E6894F85C100820E2
:100B500000FA01F131420FD021680A6852070BD523
:100B60000A6822F004020A6094F85C108840A860C9
:100B7000606D40F00100606594F85C104FF0010872
:100B800008FA01F0304208D021684969090604D505
:100B9000A860606D40F00200606594F85C1004206D
:100BA0008840304208D021680968890704D5A860C8
:100BB000606D40F00400606594F85C10102088407F
:100BC000304218D021680968090714D5A860206848
:100BD0000168490304D50068000308D5A16C07E04B
:100BE0000168C90503D4016821F008010160216C86
:100BF00009B12046884794F85C1020208840304294
:100C000031D021680968C9062DD5A86094F835004F
:100C100005282068016806D0490347D5006800030D
:100C20001DD4616C1CE021F016010160206841694F
:100C300021F080014161206C08B9A06C20B12068CE
:100C4000016821F00801016094F85C103F208840A1
:100C5000A86084F8358084F83490216D1FE0E16B42
:100C600009B120468847606D00282BD0606DC00711
:100C700014D0052084F835002068016821F00101B6
:100C800001600098401C0090B84203D820680068BA
:100C9000C007F6D184F8358084F83490E16C0029DF
:100CA00010D001B02046BDE8F04308470168C905EF
:100CB000D5D4016821F01001016084F8358084F8F2
:100CC0003490CCE7BDE8F8832C0000202DE9F041FA
:100CD000044600F0C9F906465CB1022084F83500EC
:100CE000002584F834502068016821F0010101607A
:100CF0000DE00120BDE8F08100F0B6F9801B052869
:100D000005D920206065032084F83500F2E72068CB
:100D10000068C007F0D12268116820480140D4E97A
:100D200001031843D4E90336334318436369184376
:100D3000A3691843E3691843236A18430843616AA7
:100D4000042903D1D4E90B13194308431060206828
:100D50004069666A20F0070130460E4301270428E7
:100D60000CD1A06A0643E06A40B12046FFF760FC60
:100D700020B14020606584F83570BAE7206846618C
:100D80002046FFF741FC94F85C203F2191408160B0
:100D9000656584F835700020ACE700003F8010F0F6
:100DA0002DE9F0410446866D90F8340000250128B5
:100DB0000DD0012084F8340094F835700020012F04
:100DC00007D084F8340002252846BDE8F0810220CF
:100DD000FBE7022784F8357060652046FFF752FC78
:100DE00094F85C103F208840B0602068016841F0B2
:100DF00016010160206C20B12068016841F00801F3
:100E000001602068016841F001010160DCE7000039
:100E100070B5044600F028F90546601C02D004486D
:100E20000078044400F020F9401BA042FAD370BDC2
:100E3000200000202DE9F84FDFF8F8A1002201245E
:100E400003254FF00F090AF1040BAAF1040E00BFAD
:100E50000B6804FA02F63340B34270D10F7907F001
:100E60000307012F01D0022F16D187684FEA4208ED
:100E700005FA08FC27EA0C07D1F80CC00CFA08FCAC
:100E80004CEA070CC0F808C04768B7430E79C6F3B0
:100E9000001696403E4346600E79F643B6070AD0E8
:100EA000C7684FEA420C05FA0CF6B7438E6806FA9B
:100EB0000CF63E43C6600E7906F00306022E10D1F2
:100EC000D60800EB8608D8F8206057074FEAD76CA1
:100ED00009FA0CF7BE430F6907FA0CF73743C8F855
:100EE000207006684FEA420C05FA0CF7BE430F79F2
:100EF00007F0030707FA0CF7374307604E6816F44C
:100F0000403F1CD04C4E376847F480473760366806
:100F100022F0030706F480460096484E07EB060CC5
:100F2000DCF8086897073F0F09FA07F826EA080671
:100F3000DFF80C81404503D14FF0000841E072E03A
:100F4000DFF80081404502D14FF0010839E0DFF8B9
:100F5000F880404502D14FF0020832E0DFF8EC8023
:100F6000404502D14FF003082BE0DFF8E480404514
:100F700002D14FF0040824E0DFF8D880404502D1C8
:100F80004FF005081DE0DFF8D080404502D14FF05A
:100F9000060816E0DFF8C480404502D14FF007088C
:100FA0000FE0DFF8BC80404502D14FF0080808E0B0
:100FB000DFF8B080404502D14FF0090801E04FF062
:100FC0000A0808FA07F848EA0608CCF80888DAF8A8
:100FD00000605746D1F804C09E435FEACC2C00D590
:100FE0001E433E60DBF800605F46D1F804C09E43BC
:100FF0005FEA8C2C00D51E433E60DEF80060774629
:10100000D1F804C09E435FEA8C3C00D51E433E608D
:10101000084F083F3E68D1F804C09E435FEACC3CCD
:1010200000D51E433E60521C102AFFF411AFBDE8EC
:10103000F88F0000083C0140443802400030014075
:10104000000002400004024000080240000C024080
:10105000001002400014024000180240001C024030
:1010600000200240002402400148806870470000D0
:101070002000002002488168027811448160704796
:10108000200000200B4810B5016841F40071016098
:10109000016841F480610160016841F48071016080
:1010A000032000F06FF80F2000F006F800F024F89D
:1010B000002010BD003C024070B50D4D04464FF4B9
:1010C0007A712878B1FBF0F00A490968B1FBF0F0B9
:1010D00000F0ECFA48B9102C07D200222146501E2D
:1010E00000F030F800206C6070BD012070BD000081
:1010F000200000202C0000200A4808B5016841F4B7
:1011000080410160006800F4804000900548001FA5
:10111000016841F080510160006800F0805000904B
:1011200008BD000044380240002809DB00F01F021F
:10113000012191404009800000F1E020C0F8001139
:1011400070470000F0B40E4B1B680C46C3F302233B
:10115000C3F10705042D00D90425191D072901D263
:10116000002300E0DB1E012606FA05F1491E21409E
:1011700099409E40761E16403143F0BC00F043BBC0
:101180000CED00E0064900F0070208684FF6FF0387
:10119000184040EA0220034A1043086070470000EC
:1011A0000CED00E00000FA052DE9F0470E460500C1
:1011B00065D0DFF81481D8F80000F7B200F00F0016
:1011C000B04207D288F80070D8F8000000F00F0095
:1011D000B04254D128683D4C810712D5400703D551
:1011E000206840F4E05020602878000703D520688C
:1011F00040F4604020602068A96820F0F0000843B7
:1012000020602878C0072DD0304968680839012847
:1012100012D0022813D0032811D0096889070029A9
:101220002DDA216821F0030101432160FFF71CFF43
:10123000814641F2883A0EE009688903EFE70968C0
:101240008901ECE7FFF710FFA0EB0901514502D936
:101250000320BDE8F0872068696800F00C00B0EB5F
:10126000810FEFD1D8F80010404601F00F01B142D4
:1012700007D90770006800F00F00B04201D00120CC
:10128000E7E72878400705D52068E96820F4E050B2
:10129000084320602878000706D52068296920F4D3
:1012A000604040EAC100206000F018F82168084A58
:1012B000C1F30311515CC840064908600648006844
:1012C000FFF7FAFE0020C4E7003C02400838024065
:1012D000F81B00082C00002024000020154810B541
:1012E000006810F00C02144813D01449042A0FD0DF
:1012F000082A0ED10F4C241F2268236802F03F02F7
:101300005B0207D52068C0F38810A0FB010106E04E
:10131000084610BD2168C1F38811A1FB000100231C
:10132000FEF7B4FF2168C1F30141491C4900B0FB3D
:10133000F1F010BD083802400024F40040787D012F
:101340002DE9F84F04006ED02078DFF84C93C007E9
:10135000A9F104054AD009F104000168C1F3810133
:10136000012908D00068C0F3810002280AD1D9F809
:101370000000400206D52868800337D56068002841
:10138000E1D033E06068B0F5803F10D0B0F5A02F19
:10139000286810D020F480302860286820F480204D
:1013A00028606068A8B1FFF75FFE06460DE0286878
:1013B00040F48030F4E740F480202860F7E700BF75
:1013C000FFF752FE801B642873D828688003F7D586
:1013D0000CE0FFF749FE064605E000BFFFF744FEBC
:1013E000801B6428F0D828688003F7D42078DFF8C1
:1013F000AC8280074FF0000A3ED5A748001D016867
:1014000011F00C0F08D00068C0F3810002280BD146
:10141000D9F80000400207D42868800716D5E06894
:10142000012800D112E033E1E068B8B10120C8F82A
:101430000000FFF719FE064605E000BFFFF714FEA7
:10144000801B0228C0D828688007F7D52868216942
:1014500020F0F80040EAC10028600DE0C8F800A0C4
:10146000FFF702FE064604E0FFF7FEFD801B0228A0
:101470001FD828688007F7D42078000722D5864F28
:1014800087486169703771B101210160FFF7ECFD98
:10149000064604E0FFF7E8FD801B022809D83868FB
:1014A0008007F7D50EE0C0F800A0FFF7DDFD064687
:1014B00005E082E0FFF7D8FD801B02287DD8386860
:1014C0008007F7D42078400768D5DFF8CCB1002733
:1014D0000BF13C0BDBF80000C0000BD4DBF8001074
:1014E00041F08051CBF80010DBF80000012700F03C
:1014F000805000906B4E3068C00510D4306840F4C6
:1015000080703060FFF7B0FD009005E0FFF7ACFDA4
:101510000099401A022850D83068C005F6D55E4EB2
:10152000A0686C3601280FD00528306810D020F054
:1015300001003060306820F004003060A068B8B16D
:10154000FFF792FD00900FE0306840F00100F4E7F3
:1015500040F004003060F7E7FFF786FD0099411A7C
:1015600041F28830814266D830688007F4D50EE0B9
:10157000FFF77AFD009007E0FFF776FD0099411A2A
:1015800041F28830814256D830688007F4D42FB1B8
:10159000DBF8001021F08051CBF80010A069C8B32F
:1015A0003D49091D0968C1F3810102294AD0022879
:1015B000504607D0C8F8600000E03CE0FFF754FD5B
:1015C00004463BE04746C8F86000FFF74DFD06467D
:1015D00005E000BFFFF748FD801B02282BD82868D4
:1015E0008001F7D4D4E907010843A16A2E4A4908CB
:1015F00002EB0141626A41EA8211084394F82C101F
:1016000040EA0161C9F8001001203866FFF72CFD9F
:10161000044606E03EE000BFFFF726FD001B02285F
:1016200009D828688001F7D534E000BFFFF71CFD1A
:10163000001B022802D90320BDE8F88F286880012A
:10164000F4D427E00128F7D0D9F80000E26900F4CB
:10165000800191421CD1226A00F03F01914217D1D2
:1016600047F6C071626A0140B1EB821F10D1A26AD5
:101670004FF0FF3300F4403103EB5202B1EB024F65
:1016800006D194F82C1000F07060B0EB016F01D01F
:101690000120D1E70020CFE7043802400000474294
:1016A000800E4742007000400000FFFF10B5401E52
:1016B000B0F1807F01D3012010BD4FF0E0246061C4
:1016C0000F21601700F09FF80020A0610720206123
:1016D000002010BDFEE700007FB5002520480095E2
:1016E000019502951D49039501604FF44031416019
:1016F00001244FF0007104618160047680F820506D
:101700001849C0E90A150326C661C56080F8304053
:101710004461FFF784F808B172B6FEE70720009530
:10172000CDE9014069460E48FEF7C4FF08B172B624
:10173000FEE700940224694609480194FEF7BAFFC7
:1017400008B172B6FEE7CDE9004669460448FEF7E7
:10175000B1FF002801D072B6FEE77FBD0020014036
:10176000300000200100000FFEE7FEE770477047E1
:10177000FFF780BC10B592B030216846FEF7FDFD42
:1017800014210CA8FEF7F9FD18480024016841F067
:1017900080510160006800F0805011901448016889
:1017A00021F4404141F4804101600068069400F456
:1017B00040401190022000900120039010200490DE
:1017C0006846FFF7BDFD08B172B6FEE70F20CDE910
:1017D0000C040E940F9400210CA81094FFF7E4FC65
:1017E000002801D072B6FEE712B010BD40380240AA
:1017F000007000400248016841F4700101607047C8
:1018000088ED00E0FEE70907090E002804DB00F17F
:10181000E02080F80014704700F00F0000F1E02095
:1018200080F8141D704700002DED048B82B0FFF787
:1018300029FCFFF79FFF3E480024016841F00101A9
:101840000160016801F001010091016841F480012B
:1018500001600068224600F4800000902146382094
:10186000FFF770FC3820FFF75FFCFFF735FF3249C8
:1018700000943048019408600846FFF712F908B157
:1018800072B6FEE70094002269462B480194FFF7E8
:10189000E5F808B172B6FEE7274903221431A1F139
:1018A0005C00FFF731F8244D9FED248B14359FED3C
:1018B000259B264C0126206920B94FF47A70FFF74A
:1018C000A7FA2661286800F074F853EC182B00F092
:1018D00087F853EC192B00F083F800F039F800EE8C
:1018E000100A84ED060A2868401C00EE900AF8EE03
:1018F000E00AC4ED070A2868801C00EE900AF8EEA2
:10190000E00AC4ED050AD4ED000AB4EEE00AF1EEF7
:1019100010FA01D2A66002E0A0680128CBD1D4ED74
:10192000010AB4EEE00AF1EE10FAC4DDE660C2E7A7
:101930003038024000740040780000206666666619
:1019400066668A3F0000000000408F4000000020D3
:1019500021F00042A2F16052B2F5801F01F0004375
:1019600028BFD2F17F6C0BD95FEA001C43EAC202A8
:1019700042EB507018BF704728BF20F0010070473D
:10198000B2F5801FBCBF184670474FEA410C1CF5EA
:10199000001F02D2084600F026B970B500F0CAF860
:1019A00000000089FFF7F6BF4FF00040A0F580006F
:1019B000704710F0004248BF4042B0FA80F310FA7E
:1019C00003F10AD0C3F11D0303F580634FEA4150D0
:1019D00002EB035202EBD12170474FF00000704739
:1019E000DFF848C170B51CEA111E1EBF1CEA1315B2
:1019F0009EEA0C0F95EA0C0F00F06F8081EA030459
:101A000023EA4C134EEAD47E21EA4C1141F48011B2
:101A100043F48013AE44A1FB024CA0FB0365AEF17E
:101A20007F7E361955EB0C05A1FB034C4CF10003EE
:101A3000A0FB021C16EB0C06654153F100030942A2
:101A400018BF46F0010613F4007F0BD14FEA0331B3
:101A50004FEA0530340341EA155140EA16506FF061
:101A600003020AE04FEAC3214FEAC520F40241EA2B
:101A7000555140EA56506FF0020202EB2E4201EB44
:101A8000025585EACE710AD05FEA440C18BF24F0F3
:101A9000004450F1000041F1000120EAD47040F20E
:101AA000FE7C624500D270BDA84214BF4FF0804456
:101AB0004FF04044002E08BF0024BEF1806FA8BF45
:101AC000A1F1C041BDE8704080F282804FF000007B
:101AD00001F1C04101F0004170479EEA0C0F0CEA91
:101AE000131518BF95EA0C0F06D04FF0000081EADD
:101AF000030E0EF0004170BD00F01CF88900013E9D
:101B000000F007B800F009B84FEA430C5FEA5C5CEC
:101B100008D081EA030100F05BB84FEA410C5FEAAC
:101B20005C5CF6D14FF00000014970470000FF07F0
:101B30000000F87F0EF1020E2EF0030E5EF8046B2B
:101B4000364205D4012A43EB030515F5001F12D8D0
:101B5000012841EB010C1CF5001F0CD80ED14FEAF7
:101B6000D17C15F5001F0CEB4C0C0CF1020C08BFDE
:101B70004CEBD37C04E04FF0080C01E04FEAD37C3F
:101B80000CEB4C0526FA05F606F00706B6F1040C38
:101B900006D20EEB860CBDE870404CF0010C60479D
:101BA000DFE80CF0090B02024FF000414FF000009B
:101BB000A1F5002170BD19461046012851EB010422
:101BC00018BFD4F5001484BF002001F0004170BD9F
:101BD0000808A0F500114FEA310170474FF040703E
:101BE000E1EE100A7047FF2141EAD050C00570476E
:101BF000000610160006101600000000000000008D
:101C00000102030406070809281C00080000002040
:101C100030000000E8010008581C000830000020D7
:101C2000280700000402000800005C430000A043F5
:101C300001000000000000000000000000000000A3
:101C40000000000000000000010000001000000083
:081C5000000000000024F40074
:04000005080001AD41
:00000001FF
